:400000000080002011000000191400001914000008B5044B1A6803F53F5302331A6001F01BFA00BFFA46004010B5054C237833B9044B13B10448AFF300800123237010BD07
:400040009081FF1F0000000030520000084B10B51BB108490848AFF300800848036803B910BD074B002BFBD0BDE81040184700BF000000009481FF1F30520000C880FF1F6E
:400080000000000070B5044604E01C49204602F09BF904461A49204602F05CFC0028F4D104E01649204602F091F904461549204602F032FC0028F4D12146204602F08EFACB
:4000C00006460146204602F089FA05460146304602F084FA06460C49284602F033FB0146204602F071F904460849304602F02AFB0146204602F06AF970BD00BFDA0FC940DA
:40010000DA0F4940DA0F49C00000C0400000F04210B500241FE0204602F008FA0F4902F05DFA4FF0725102F059FAFFF7ABFF0C4902F054FA4FF0864102F048F902F014FC8F
:4001400000B2002800DA0020FF2800DDFF20054B18550134A4B23F2CDDD910BDDA0FC9400000FE42AC81FF1F00220FE0C2EB0221144BA3FB0103C91A03EB5103C3F30713FE
:400180001149114481F84030013292B21F2AEDD900B5002211E002F12000C2EB0221094BA3FB01E3C91A03EB51036FEA13130649014481F84030013292B21F2AEBD95DF8A6
:4001C00004FB00BF85104208AC81FF1F002306E00A4A1A44002182F8801001339BB21F2BF6D9202306E0054A1A44FF2182F8801001339BB23F2BF6D9704700BFAC81FF1F1C
:40020000184B93F8C030DBB2012B07D0154B93F8C030DBB2022B03D1134802E0134800E01048134B1B78DBB2642B02D96422104B1A70002212E0815C0D4B1B7803FB01F3F6
:400240000C49A1FB0313C3F34F13FF2B00D9FF230449114481F8C430013292B23F2AEAD9704700BFAC81FF1F2C82FF1FEC81FF1FCC80FF1F1F85EB5108B5064B18701B78FD
:40028000DBB2642B02D96422024B1A70FFF7B8FF08BD00BFCC80FF1F08B5034B83F8C000FFF7AEFF08BD00BFAC81FF1F08B501F0ABFB164A92F804310133DBB282F80431B4
:4002C000012B22D980B21346002283F8042193F8053113F0FF0F18D10C4AB2F806319BB2591C89B2A2F80611C0F30710134483F80801B2F806319BB2FB2B06D91346012296
:4003000083F805210022A3F8062108BDAC81FF1F10B501F043FC104B93F8043213F0FF0F03D1002001F0CCFB10BD0B4CB4F806329BB25A1C92B2A4F80622234493F8C400D1
:4003400001F0BEFBB4F806329BB23F2B02D90022A4F8062210BD00BFAC81FF1F70B596B0002001F02FFE002001F054FE002001F009FE322001F0C2FD142001F0C9F8002074
:4003800001F04AFD01F05AFD01F064FD064602F0D1F8114902F0D6F9104902F0D3F90446002102F0B9FA00B100240D49204602F015F902F0D9FA0546204602F0D5FA0095C5
:4003C00003463246074902A802F0A8FF02A801F0CFF9284616B070BD00007A44240ED939000088423852000070B506464FF47A7505FB01F5002409E001F020FD01F02AFDC3
:40040000B04208DA0A2001F099F80A34AC42F3D34FF0FF3070BD204670BD00BF30B597B0012001F0CFFD002001F068FD0C2001F0E5FD002001F0D6FD322001F069F8002036
:4004400001F0DCFD322001F079F8002001F09AFD0C2001F053FD4FF4FA710220FFF7C4FF05464FF4FA710A20FFF7BEFF0446002001F044FDB5F1FF3F04D0B4F1FF3F01D082
:40048000A54204D3134801F073F9134820E0641B204602F04BF8114902F0A0F8104902F09DF8104902F04EF90F4902F097F80F4902F094F8054601F02FFFCDE900012246C3
:4004C0000B4902A802F02AFF02A801F051F9284617B030BD5C520000000080BFBD3786359C53C9386F12033C4260653C002474497852000010B5034600B9012340F6B83297
:40050000934200D91346980100D101200A4BB3FBF0F000B90120B0F5803F01D34FF6FF70441E01F02DFB002001F04AFBA0B201F03BFB01F06FFB10BD40420F0038B5404907
:4005400002F038FF044677E005223E49204602F01BFF28B9601D02F02DFAFFF7CBFF66E004223949204602F00FFF60B9201D02F021FA002800DA0020642800DD6420C0B222
:40058000FFF77AFE53E005223049204602F0FCFED0B905342E49204602F0E4FE10B9FFF77BFE44E02B49204602F0DCFE18B90120FFF772FE3BE02849204602F0D3FEB0BBBB
:4005C0000220FFF769FE32E003222449204602F0DBFE90B9E01C02F0EDF920B10122204B83F8042223E01E4D002485F80442204601F066FAA5F8064219E0052219492046B1
:4006000002F0C2FE98B905341749204602F0AAFE20B90122124B83F8082208E01349204602F0A0FE18B901220D4B83F809220449002002F0BFFE0446002C85D138BD00BF58
:40064000985200009C520000A4520000AC520000B4520000BC520000C0520000C4520000AC81FF1FC8520000D0520000D452000038B521E001F000F80D2801D00A280FD1D6
:40068000104BB3F80A32BBB10E4C2344002583F80C5204F50370FFF751FFA4F80A520BE0084BB3F80A323E2B06D8064A591CA2F80A12134483F80C0201F01EF80028D9D183
:4006C00038BD00BFAC81FF1F30B58BB0FFF7D0FF234B93F8083213F0FF0F0DD00022204B83F80822FFF73AFE02461E49684602F015FE684601F03CF8194B93F8093213F033
:40070000FF0F10D00022164B83F80922FFF786FE01F002FE02460B461349684602F0FEFD684601F025F80E4B93F8053113F0FF0F12D0AA238DF80030FC258DF80150022142
:40074000684601F027F8064C294604F5847001F021F8002384F80531012000F055FCB5E7AC81FF1FD8520000E452000000B583B062B600F073FF01F031F901F03DF91A487F
:4007800001F074F901F032FB01F03EFB01F0E8FB01F008FCFFF7BCFCFFF7E6FCFFF716FDFFF72EFD01F0C4F9002001F089F901F0D1F901F02FFA0D4801F054FA4FF47A7043
:4007C000FFF798FE00F01AF800230193032200924FF480720649074800F0C0FA064800F0C7FF00F0EDFAFEE7AD02000011030000F0520000C9060000F452000008B506499A
:400800000B2000F0A5FE05490E2000F0A1FE04490F2000F09DFE08BD91080000F10800003509000082B0002301934FF0A00383F31188BFF36F8FBFF34F8F019B002BFCD0A6
:4008400002B0704706480068006880F3088862B661B6BFF34F8FBFF36F8F00DF00BF000008ED00E04FF0807340F8043C21F0010140F8081C034B40F80C3C40F8202C403829
:40088000704700BF250800000000000000000000074B19680868B0E8F00F80F30988BFF36F8F4FF0000080F311884EF00D0E7047EC0400204FF0A00383F31188BFF36F8FFB
:4008C000BFF34F8F024A136801331360704700BFD080FF1F034A1368013B13600BB983F311887047D080FF1F0000000000000000EFF30980BFF36F8F0D4B1A6820E9F00FAA
:4009000010602DE908404FF0A00080F3118800F095FB4FF0000080F31188BDE8084019680868B0E8F00F80F30988BFF36F8F7047EC04002008B54FF0A00383F31188BFF3E3
:400940006F8FBFF34F8F00F073FA18B14FF08052024B1A60002383F3118808BD04ED00E0054B00221A6005490A6045F6BF51044A116007221A60704710E000E018E000E073
:4009800014E000E010B50B4B1A6842F460021A601A6842F060421A60FFF7E2FF0024064B1C60FFF74FFF00F049FBFFF73BFF204610BD00BF20ED00E0D080FF1F38B50446F0
:4009C00010F0070F02D020F00704083400F026FA104B1B682BB90F4A02F10C0323F0070313600D4BD3F83C391C4447F6F772944208D8A34208D2074A15681D44064BC3F8AD
:400A00003C4902E0002500E0002500F091FA284638BD00BFF883FF1FC0FAFF1F704700BF00F1080343604FF0FF328260C360036100230360704700BF00230361704700BF30
:400A400043684B609A688A609A68516099600861036801330360704730B40D68B5F1FF3F01D1026907E000F1080200E01A4653681C68A542FAD253684B6099608A605160DE
:400A8000086103680133036030BC704703694268816891608268416851605A68904201D182685A60002202611A68013A1A601868704700BF074B9B6A1B6823B94FF0FF3212
:400AC000044BDA627047034B9A6AD268D2685268DA6270470004002010B50446006BFFF79DFF2046FFF79AFF10BD00BF2DE9F04781460D4617469A46089EDDF824800A9C27
:400B00009200A521206B01F090FF236B07F18042013A03EB820727F0070745B90EE0E95CE21882F83410EA5C22B1013300E000230B2BF4D9002384F83F3002E0002384F868
:400B40003430052E00D90526E662266400256564201DFFF771FF04F11800FFF76DFF2461C6F10606A6616462A56484F84C50524649463846FFF776FE2060B8F1000F01D0BA
:400B8000C8F80040BDE8F08770B5002407E004EB8402930010481844FFF742FF0134052CF5D90E4C04F1A8063046FFF739FF04F1BC052846FFF734FF04F11400FFF730FFA6
:400BC00004F1D000FFF72CFF2046FFF729FFA662C4F8E45070BD00BF300400200004002038B50546FFF766FE264BD3F8E8200132C3F8E820D3F8EC304BB9224BC3F8EC5014
:400C0000D3F8E830012B10D1FFF7BEFF0DE01D4BD3F8F0304BB91B4BD3F8EC30DA6AEB6A9A4202D8174BC3F8EC50164CD4F8F4300133C4F8F430EB6A012202FA03F1D4F83E
:400C4000F8200A43C4F8F82004F1300003EB83039A00291D1044FFF7F3FEFFF73BFED4F8F0306BB1D4F8EC30DA6AEB6A9A4207D24FF08052044B1A60BFF34F8FBFF36F8F00
:400C800038BD00BF0004002004ED00E038B517E0FFF710FE0D4CD4F8DC30DD68281DFFF7F5FED4F8E830013BC4F8E830D4F8FC30013BC4F8FC30FFF70DFE2846FFF70CFF7F
:400CC000024BD3F8FC30002BE2D138BD0004002008B5FFF7DBFFFCE770B504460E461E4BD3F80051D3F8EC000430FFF7CFFE60B9194BD3F8EC20D16A012202FA01F1D3F8E8
:400D0000F82022EA0102C3F8F820B4F1FF3F07D136B11148D0F8EC100431FFF791FE70BD2C440D4BD3F8EC305C60A54208D90A4BD3F8E400D3F8EC100431FFF78DFE70BD32
:400D4000054DA86AD5F8EC100431FFF785FEEB6A9C4200D2EC6270BD000400202DE9F04385B006460F46154698469000FFF726FE60B181465020FFF721FE044610B1C0F8D2
:400D8000309004E04846FFF749FE00E000248CB10023039302940D9B01930C9B009343462A4639463046FFF7A1FE2046FFF718FF012001E04FF0FF3005B0BDE8F08300BFCC
:400DC00000B583B0114B0193002300934FF480720F491048FFF7C2FF012813D14FF0A00383F31188BFF36F8FBFF34F8F0A4B4FF0FF32DA620122C3F8F0200022C3F800219E
:400E0000FFF7C0FD03B05DF804FB00BF08050020FC520000D10C000000040020034AD2F804310133C2F80431704700BF000400202DE9F0413D4BD3F80431002B62D13B4B01
:400E4000D3F800710137C3F8007167B99A6AD3F8E4109962C3F8E420D3F80C210132C3F80C21FFF727FE314BDB6A9F4205D24FF000083BE04FF0010801E04FF000082B4B46
:400E80009B6A1B6823B94FF0FF32284BDA622DE0264B9B6ADB68DC6863689F4202D2234AD36223E0261D3046FFF7F0FDA36A1BB104F11800FFF7EAFDE36A012202FA03F1C1
:400EC0001A4DD5F8F8200A43C5F8F82005F1300003EB83039A0031461044FFF7B1FDE26AD5F8EC30DB6A9A42C4D2C8E70F49D1F8EC30DB6A03EB83039A000A44136B012BBE
:400F000009D80AE0094AD2F810310133C2F810314FF0000801E04FF00108044BD3F814310BB14FF001084046BDE8F0810004002070B5FFF7BFFC324BD3F80421013AC3F88D
:400F40000421D3F80431002B53D12D4BD3F8E83043BB002450E02A4C236ADD6805F11800FFF794FD2E1D3046FFF790FDEB6A012202FA03F1D4F8F8200A43C4F8F82004F1CD
:400F8000300003EB83039A0031461044FFF758FDEA6AD4F8EC30DB6A9A4204D30122C4F8142100E00025164B5B69002BD3D10DB1FFF780FD124BD3F8104164B1FFF738FFB0
:400FC00018B101220E4BC3F81421013CF6D100220B4BC3F810210A4BD3F814315BB14FF08052084B1A60BFF34F8FBFF36F8F012402E0002400E00024FFF76CFC204670BDA5
:401000000004002004ED00E010B548B10446FFF705FF00212046FFF75FFEFFF789FF00E0002038B94FF08052034B1A60BFF34F8FBFF36F8F10BD00BF04ED00E01A4BD3F8CA
:40104000043123B10122184BC3F81421704710B4154A0023C2F81431D2F8F830B3FA83F3DBB2C3F11F039800C418A10011444C6B64684C6302F130011844820008320A4457
:40108000944206D1606803EB83018A0006490A445063054903EB83039A000A44536BDB68C1F8EC3010BC704700040020FEE700BFF0B40022174611E050F82760F3B226F006
:4010C000FF0608E001EB420511F812406D78A5550132013BDBB2002BF4D10137192FEBD9F0BC704708B50A46002101F09EFC08BDF8B5204B1B78DBB21F4E3478E4B21F4F30
:401100003D78EDB203F007011D4A11701B090132137044F00303337045F003033B704FF48142184B1A80012221331A70402316490B7002310B7006310B7002310B708020EC
:4011400001F5BC71087010310A708D310A70202203310A7005310B7003310A700B4A13700A2000F0EBF93D7034704422084B1A70F8BD00BFCF010049F8460040F94600409E
:401180006E5800400C51004001590040585B00407658004008B501F03DFC08BD38B517222E4B1A8018232E4A13701925023215800232137008222B492B48FFF7EBFF022203
:4011C0002A4B1A7008224FF040231A70032103F500731970264B1B78DBB226490B70264B1A8041F25122023B1A8000240CE0234B1B7803F0010343EA440404F003044FF4C4
:40120000F07000F015FF013D0DB1032CEFD115B90320FFF74BFF1A4B4FF480721A8007221A70002217490A704820023108701A700222033B1A7004220A331A70124A1378EE
:4012400043F003031370013A137843F003031370013A137843F08003137038BD804000408240004070040048004100400043004008010049A14600402242004025420040B6
:401280000440004006400040A2430040012814D810B44000C0B2094B53F820101A18147C0A7822430A700130C0B253F820201844017C13780B43137010BC70470453000045
:4012C000012816D810B44000C0B20A4B53F820101A18147C0A7822EA04020A700130C0B253F820201844017C137823EA0103137010BC70470453000038B572B6354A1378A2
:4013000043F00403137000240BE0334863001A19510001440A46098B5069FFF7E3FE0134E4B2072CF1D900240BE02B49A3001819420088188022816C406CFFF72BFF013435
:40134000E4B2002CF1D025494FF09040FFF7B0FE234A137843F0020313701032137843F0020313701F4C237843F040032370A2F58632513A137843F01003137008221A49C4
:401380001A48FFF707FF0A2219491A48FFF702FF082219491948FFF7FDFE082218491948FFF7F8FE184A137843F008031370174D61232B70FFF7F2FE81232B700122144B5A
:4013C0001A70FFF795FE0E2221461248FFF7E2FE38BD00BFE8460040045300006800004803500140A04300404C0400480251004054040048C05100406004004812510040C8
:401400006804004822510040224300400048004004000840B043004008B501F0CFFA03680C2B00D1FEE7FEE708B5094B1A681044084BC31AB3F5805F02DC054B186005E0BC
:4014400001F0BCFA0C2303604FF0FF32104608BDD480FF1F5805002008B5104E104D16E029686B68AC68002204E051F8040B43F8040B0432A242F8D1E868002203E00021D2
:4014800043F8041B04328242F9D11035013E002EE6D101F099FAFFF769F9FEE701000000D855000008B5104A104B1A60104A136843F40073136000230AE0032B03D80D4A6B
:4014C00052F8231000E00C490C4A42F8231001332F2BF2D90A4B1A780A4B1A70074A0A4B1A60FFF709FF08BD0004FA050CED00E014ED00E000000000191400000080FF1FED
:40150000BC760040C080FF1F08ED00E001BE704710B5044605E0084B186800F089FDA4F50044B4F5004FF6D8034B586800FB04F000F07EFD10BD00BFD880FF1F08B5034B3B
:401540001B7A00FB03F000F073FD08BDD880FF1F70B504460E46074B1D680F2802D90020FFF7D4FF04F00F0455F8240045F8246070BD00BF08ED00E070B504460E46074BA9
:401580001D681F2802D90020FFF7C0FF04F01F04103455F8240045F8246070BD08ED00E038B504460D46072902D90020FFF7AEFF1F2C02D90020FFF7A9FF04F01F0000F1E0
:4015C000604000F564406D01EDB2057038BD00BF08B50D490220FFF7CFFF07210220FFF7DFFF0023094A13707221094A11702021A2F58072117006219E3211704721103298
:4016000011705332137008BDBD170000180500208A65004010B500F013FD04460C4A137843F020031370A2F58072137843F0100313700422074B1A60074A137843F0100362
:40164000137000F007F9204600F0FEFC10BD00BF9A65004000E100E09B65004008B5054B5B7823B9FFF7B4FF0122024B5A70FFF7D1FF08BD180500200422194B1A60194A0D
:401680009378DBB2D178C9B2127912F0FF0F01D18B4211D0144AD05CC0B20133DBB20F2B00D900230F4A9370137913F0FF0F13D000220C4B1A710FE00C4B1B78DBB213F077
:4016C000200F06D00A4A1078C0B213F01E0F02D102E0002000E000200422064B1A60704780E100E0180500202C0500206A6400404965004000E100E00422144B1A60144B00
:401700009A78D2B2DB78DBB29A4206D1104B1B7913F0FF0F15D0102014E00D4B9A78D2B2DB78DBB29A4205D2094AD3789078181AC0B207E0064AD3789078181A1030C0B23E
:4017400000E000200422034B1A60704780E100E01805002000E100E0034B1B7813F0040FFAD1024B187070476B6500404A65004038B5074B5B782BB938BDFFF7EDFF013436
:40178000A4B201E005460024285D0028F5D138BD18050020084B5B7833B97047305DFFF7DBFF0134E4B203E070B50D4606460024AC42F3D370BD00BF180500201D4B1B784A
:4017C000DBB213F01E0F05D01B4803F01E0201780A43027003F0200303F0FF0233B3174B1978C9B2164B1B78DBB21648C154164B1B7813F0FF0F02D00121144B197010491D
:401800000B780133DBB20B700B78DBB20F2B02D900210B4B19700A4B1978C9B20C4B1B78DBB2994202D10121074B1970002AC5D1704700BF6A6400401805002049650040D2
:401840001B0500202C0500201C0500201D0500201A050020054A137843F0020313701032137843F002031370704700BFA243004008B50A280FD00C2802D0082806D102E0A0
:401880004FF4805209E04FF4807206E00020FFF73DFE002201E04FF480620021094B198042F2107303FB02F303F6C413064A82FB0302DB17C3EBE223044A1360044B1980EE
:4018C00008BD00BF3C050020AD8BDB68400500203E05002010B500F0B3FB04461E4A137843F0010313701032137843F0010313701A3A137843F0010313701032137843F046
:401900000103137002F5AA521232137843F0030313700422114B1A70013B1A7842F040021A701A7802F0FC021A70C822053B1A700222A3F597530C3B1A70094A137843F082
:40194000080313700A20FFF7F9FD0122054B1A60204600F079FB10BDAB43004006590040275B004080E200E010B504460A280DD00C2802D0082804D101E0C42207E0442231
:4019800005E00020FFF7C2FDC42200E08422034B1A702046FFF76CFF10BD00BF0259004008B5102000F03EF807210020FFF7F8FD07490020FFF7E0FD064A137843F006039B
:4019C00013700C20FFF7D0FF0022034B1A8008BD211A0000015900404405002008B5054B1B7823B9FFF7DCFF0122024B1A70FFF771FF08BD1F050020024A137843F00103A2
:401A00001370704700590040034B188880B2034B1B88C01A00B27047A05B00403E050020704700BF034B1A7800F0F80010431870704700BF02410040014B1B68D86470470D
:401A400008ED00E04001C0B2014B1870704700BF03E400E00822014B1A60704700E100E00822014B1A60704780E100E010B50446FFF7F6FF2046FFF7DFFF0720FFF7E2FF4B
:401A8000FFF7E8FF10BD00BF054A137843F0040313701032137843F004031370704700BFA8430040054B1A7802F0FD021A701A7800F0020010431870704700BF2858004009
:401AC000014B1870704700BF825B0040064B1B78C3F3810303F19243063393F82831DBB2024A1370704700BF285800400A46004008B5064B1A7802F0F3021A701A7800F0C6
:401B00000C0010431870FFF7E1FF08BD2858004008B50023054A1370013213700420FFF7E7FF0220FFF7BEFF08BD00BF2858004008B5074B1B7823B9FFF7EAFF0122044B13
:401B40001A70FFF7A1FF6420FFF7BAFF08BD00BF20050020054A137843F0010313701032137843F001031370704700BFA2430040024A137843F08003137070477B640040AD
:401B8000024A137803F07F03137070477B640040014B1870704700BF8B640040014B1878704700BF6B640040014B1880704700BF54680040014B188880B27047946800403F
:401BC000014B1880704700BF1468004008B501E0FFF7F0FFFFF7E2FF10F0080FF8D108BD08B540F2E630FFF7DFFF40F2E630FFF7E7FF00F025FA064A137843F01003137020
:401C000000F022FAFFF7E2FF0120FFF7C1FF08BD9B64004008B5054B1B7823B9FFF7E0FF0122024B1A70FFF7A3FF08BD21050020014B1B681865704708ED00E04001C0B26D
:401C4000014B1870704700BF04E400E01022014B1A60704700E100E01022014B1A60704780E100E010B50446FFF7F6FF2046FFF7DFFF0720FFF7E2FFFFF7E8FF10BD00BF57
:401C800008B50A280FD00C2802D0082806D102E04FF4805209E04FF4807206E00020FFF735FC002201E04FF480620021094B198042F2107303FB02F303F6C413064A82FB8A
:401CC0000302DB17C3EBE223044A1360044B198008BD00BF50050020AD8BDB68480500204C05002038B500F0ABF904461E4A137843F0020313701032137843F0020313703E
:401D00001A3A137843F0020313701032137843F00203137002F5AA521A32137843F0030313700422114B1A70013B1A7842F040021A701A7802F0FC021A70C822053B1A7063
:401D40000225A3F59753123B1D70094A137843F0080313700A20FFF7F1FB064B1D60204600F072F938BD00BFAB4300400E5900402F5B004080E200E010B504460A280DD0F3
:401D80000C2802D0082804D101E0C42207E0442205E00020FFF7BAFBC42200E08422034B1A702046FFF76CFF10BD00BF0A59004008B5102000F07CF807210120FFF7F0FB9F
:401DC00007490120FFF7D8FB064A137843F0060313700C20FFF7D0FF0022034B1A8008BDAD1E0000095900404E05002008B5054B1B7823B9FFF7DCFF0122024B1A70FFF732
:401E000071FF08BD22050020024A137843F00103137070470859004010B5074B1B7813F0010401D10028F8D024B10120FFF786FB014B1B78204610BD09590040034B1888BA
:401E400080B2034B1B88C01A00B27047A25B00404C05002010B4124B1B881BB233B1104B1B881BB203EB83035C0001E00D4B1C680D4B1988411A09B242F2107303FB01F2CA
:401E8000002903DD04EBD470401003E004EBD47040104042831893FBF4F000B210BC704750050020480500204E050020704700BF034B1A7800F0F80010431870704700BF88
:401EC00006410040054A137843F0010313701032137843F001031370704700BFA8430040054B1A7802F0FD021A701A7800F0020010431870704700BF20580040014B1870E1
:401F0000704700BF805B0040094B1B7803F00C035B08084A127812F0040F00D0013303F1924393F82031DBB2034A1370704700BF20580040215800400846004008B5102269
:401F4000064B1A700133002018701A7842F004021A70FFF7C5FFFFF7D7FF08BD2058004008B5074B1B7823B9FFF7E8FF0122044B1A70FFF7A7FF7820FFF7C0FF08BD00BF8F
:401F80002305002008B5064B1A7802F0FB021A701A7800F0040010431870FFF7B5FF08BD2158004010B5002404E02046FFF788F90134E4B2012CF8D9FF22014B1A7010BD00
:401FC000E880FF1F10B50446054B1878FF2801D0FFF776F92046FFF759F9014B1C7010BDE880FF1F044A137803F0DF03400100F0200018431070704710510040044A13782B
:4020000003F0F10300F00E0018431070704700BF0D500040044A137803F0F10300F00E0018431070704700BF06500040000000000230800803D000BF01380046FCD17047D9
:40204000EFF3108072B6704780F31088704700BF81F0004102E000BF83F0004330B54FEA41044FEA430594EA050F08BF90EA020F1FBF54EA000C55EA020C7FEA645C7FEAB6
:40208000655C00F0E2804FEA5454D4EB5555B8BF6D420CDD2C4480EA020281EA030382EA000083EA010180EA020281EA0303362D88BF30BD11F0004F4FEA01314FF4801C7A
:4020C0004CEA113102D0404261EB410113F0004F4FEA03334CEA133302D0524263EB430394EA050F00F0A780A4F10104D5F1200E0DDB02FA0EFC22FA05F2801841F100014C
:4021000003FA0EF2801843FA05F359410EE0A5F120050EF1200E012A03FA0EFC28BF4CF0020C43FA05F3C01851EBE37101F0004507D54FF0000EDCF1000C7EEB00006EEB6B
:402140000101B1F5801F1BD3B1F5001F0CD349085FEA30004FEA3C0C04F101044FEA445212F5800F80F09A80BCF1004F08BF5FEA500C50F1000041EB045141EA050130BD0A
:402180005FEA4C0C404141EB010111F4801FA4F10104E9D191F0000F04BF01460020B1FA81F308BF2033A3F10B03B3F120020CDA0C3208DD02F1140CC2F10C0201FA0CF0A8
:4021C00021FA02F10CE002F11402D8BFC2F1200C01FA02F120FA0CFCDCBF41EA0C019040E41AA2BF01EB0451294330BD6FEA04041F3C1CDA0C340EDC04F11404C4F12002FA
:4022000020FA04F001FA02F340EA030021FA04F345EA030130BDC4F10C04C4F1200220FA02F001FA04F340EA0300294630BD21FA04F0294630BD94F0000F83F4801306BF51
:4022400081F480110134013D4EE77FEA645C18BF7FEA655C29D094EA050F08BF90EA020F05D054EA000C04BF1946104630BD91EA030F1EBF0021002030BD5FEA545C05D1BE
:402280004000494128BF41F0004130BD14F580043CBF01F5801130BD01F0004545F0FE4141F470014FF0000030BD7FEA645C1ABF194610467FEA655C1CBF0B46024650EA07
:4022C000013406BF52EA033591EA030F41F4002130BD00BF90F0000F04BF0021704730B54FF4806404F132044FF000054FF0000150E700BF90F0000F04BF0021704730B5F7
:402300004FF4806404F1320410F0004548BF40424FF000013EE700BF42004FEAE2014FEA31014FEA02701FBF12F07F4393F07F4F81F06051704792F0000F14BF93F07F4F64
:40234000704730B54FF4607401F0004521F0004120E700BF50EA010208BF704730B54FF000050AE050EA010208BF704730B511F0004502D5404261EB41014FF4806404F1A5
:4023800032045FEA915C3FF4DCAE4FF003025FEADC0C18BF03325FEADC0C18BF033202EBDC02C2F1200300FA03FC20FA02F001FA03FE40EA0E0021FA02F11444C1E600BF90
:4023C00080F0004002E000BF81F0004142001FBF5FEA410392EA030F7FEA226C7FEA236C6AD04FEA1262D2EB1363C1BFD218414048404140B8BF5B42192B88BF704710F04C
:40240000004F40F4000020F07F4018BF404211F0004F41F4000121F07F4118BF494292EA030F3FD0A2F1010241FA03FC10EB0C00C3F1200301FA03F100F0004302D5494269
:4024400060EB4000B0F5000F13D3B0F1807F06D340084FEA310102F10102FE2A51D2B1F1004F40EBC25008BF20F0010040EA03007047490040EB000010F4000FA2F10102C3
:40248000EDD1B0FA80FCACF1080CB2EB0C0200FA0CF0AABF00EBC25052421843BCBFD0401843704792F0000F81F4000106BF80F400000132013BB5E74FEA41037FEA226C35
:4024C00018BF7FEA236C21D092EA030F04D092F0000F08BF0846704790EA010F1CBF0020704712F07F4F04D1400028BF40F00040704712F100723CBF00F50000704700F022
:40250000004343F0FE4040F4000070477FEA226216BF08467FEA23630146420206BF5FEA412390EA010F40F4800070474FF0000304E000BF10F0004348BF40425FEA000C05
:4025400008BF704743F0964301464FF000001CE050EA010208BF70474FF000030AE000BF50EA010208BF704711F0004302D5404261EB41015FEA010C02BF8446014600207B
:4025800043F0B64308BFA3F18053A3F50003BCFA8CF2083AA3EBC25310DB01FA02FC634400FA02FCC2F12002BCF1004F20FA02F243EB020008BF20F00100704702F12002D7
:4025C00001FA02FCC2F1200250EA4C0021FA02F243EB020008BF20EADC7070474FF0FF0C1CEAD0521EBF1CEAD15392EA0C0F93EA0C0F6FD01A4480EA010C400218BF5FEA56
:4026000041211ED04FF0006343EA501043EA5111A0FB01310CF00040B1F5000F3EBF490041EAD3715B0040EA010062F17F02FD2A1DD8B3F1004F40EBC25008BF20F001009B
:40264000704790F0000F0CF0004C08BF49024CEA502040EA51207F3AC2BFD2F1FF0340EAC250704740F400004FF00003013A5DDC12F1190FDCBF00F000407047C2F100023B
:40268000410021FA02F1C2F1200200FA02FC5FEA310040F1000053EA4C0308BF20EADC70704792F0000F00F0004C02BF400010F4000F013AF9D040EA0C0093F0000F01F055
:4026C000004C02BF490011F4000F013BF9D041EA0C018FE70CEAD15392EA0C0F18BF93EA0C0F0AD030F0004C18BF31F0004CD8D180EA010000F00040704790F0000F17BFB3
:4027000090F0004F084691F0000F91F0004F14D092EA0C0F01D142020FD193EA0C0F03D14B0218BF084608D180EA010000F0004040F0FE4040F40000704740F0FE4040F45E
:40274000400070474FF0FF0C1CEAD0521EBF1CEAD15392EA0C0F93EA0C0F69D0A2EB030280EA010C49024FEA402037D04FF0805343EA111143EA10130CF000408B4238BFDC
:402780005B0042F17D024FF4000C8B4224BF5B1A40EA0C00B3EB510F24BFA3EB510340EA5C00B3EB910F24BFA3EB910340EA9C00B3EBD10F24BFA3EBD10340EADC001B012B
:4027C00018BF5FEA1C1CE0D1FD2A3FF650AF8B4240EBC25008BF20F0010070470CF0004C4CEA50207F32C2BFD2F1FF0340EAC250704740F400004FF00003013A37E792F0B3
:40280000000F00F0004C02BF400010F4000F013AF9D040EA0C0093F0000F01F0004C02BF490011F4000F013BF9D041EA0C0195E70CEAD15392EA0C0F08D142027FF47DAFEC
:4028400093EA0C0F7FF470AF084676E793EA0C0F04D14B023FF44CAF08466EE730F0004C18BF31F0004CCAD130F000427FF45CAF31F000437FF43CAF5FE700BF4FF0FF3C8C
:4028800006E000BF4FF0010C02E000BF4FF0010C4DF804CD4FEA40024FEA41037FEA226C18BF7FEA236C11D001B052EA530C18BF90EA010F58BFB2EB030088BFC81738BF04
:4028C0006FEAE17018BF40F0010070477FEA226C02D15FEA402C05D17FEA236CE4D15FEA412CE1D05DF8040B704700BF844608466146FFE70FB5FFF7C9FF002848BF10F1D5
:40290000000F0FBD4DF808EDFFF7F4FF0CBF012000205DF808FB00BF4DF808EDFFF7EAFF34BF012000205DF808FB00BF4DF808EDFFF7E0FF94BF012000205DF808FB00BF58
:402940004DF808EDFFF7D2FF94BF012000205DF808FB00BF4DF808EDFFF7C8FF34BF012000205DF808FB00BF4FEA4002B2F1FE4F0FD34FF09E03B3EB12620DD94FEA0023E8
:4029800043F0004310F0004F23FA02F018BF404270474FF00000704712F1610F01D1420205D110F0004008BF6FF0004070474FF0000070470A22002100F0E0BD014B1868E5
:4029C000704700BF4C81FF1F0E4B70B51E460E4C0025E41AA410A54204D056F8253098470135F8E702F0E6FD084B094C1E46E41AA4100025A54204D056F8253098470135E6
:402A0000F8E770BDC0550000C0550000C0550000C855000010B5431E0A44914204D011F8014B03F8014FF8E710BD03460244934202D003F8011BFAE770472DE9F04788B05D
:402A4000149F002B1E461299B8BF03F1004327F02007B6BF1E4600232D23462F1446109DDDF84CA00B7003D0452F03D1013501E0032300E0022307AA049206AA03928DE81B
:402A800028042246334600F00FFE472F804602D1119BDB0728D5462F08EB050911D198F80030302B0AD1002200232046314602F04FFB18B9C5F10105CAF80050DAF8003025
:402AC0009944002200232046314602F041FB08B9302202E0CDF81C9006E0079B994503D9591C07911A70F8E74046079B159AC8EB0303136008B0BDE8F087034673B500291A
:402B0000B8BF494203F8022BB4BF2D222B22092942701ADD0DF1070216460A2591FBF5F405FB1411092C01F1300102F8011D2146F4DC3031541E02F8011CB4421A460AD292
:402B400014F8012B03F8012BF7E71A463024214402F8024B5970101A02B070BD2DE9F04F91B00C46DDF8688016461F46054601F033FB03681846099300F0FEFB00230E9304
:402B8000D8F800300A90073323F0070303F1080294F81890D4F800B0C8F80020D3E90023C4E91223D4F84CA0D4F848802AF000430B934FF0FF32A74B40460B9902F0FAFA1C
:402BC000A0B94FF0FF32A34B40460B9902F0D4FA60B9002200234046514602F0C3FA10B12D2384F843309C4B9C4A0AE0424653464046514602F0DEFA002800F09281984B3D
:402C0000984AB9F1470F8CBF90469846032323612BF0040323604FF0000A3DE0B9F1670F00F08A81B9F1470F00F0868123600193636800210DF13302059002920093424672
:402C400053460691CDF81090CDF80CE02846FFF7F4FE09F0DF03472B804600F08481B9F1650F0D9900F28D8101394A4604F150000D91FFF742FF0E9A82468318012A23614E
:402C800000F37C812268D10700F178819DF8333013B12D2384F84330009733460FAA2146284600F09FF9013002D14FF0FF3096E123685A0501D4236965E0B9F1650F40F2EE
:402CC000D580D4E912010022002302F041FA78B30123654A31462846B8470130E5D00E9B0D9A9A420BDB2368D80708D423689B0740F111814FF0000804F1190906E10A9B43
:402D0000099A31462846B8470130CED04FF0000804F11A090E9B013B9845E7DA01234A4631462846B8470130BFD008F10108F1E70D9B002B29DC01234B4A31462846B847B4
:402D40000130B2D00D9B23B90E9B13B92368D907CCD50A9B099A31462846B8470130A4D04FF0000904F11A0A0D9B5B42994509DA0123524631462846B847013095D009F133
:402D80000109F1E70E9B4246A7E00E9AA36D9A42A8BF1A46002A914606DC4FF0000A29EAE97904F11A0B11E01346314642462846B8470130F1D178E701235A4631462846B2
:402DC000B84701303FF471AF0AF1010AA36DC9EB03029245F0DB08EB03090D9A0E9B9A420FDB2368DA070CD40E9B0D9A9844C9EB08089B1A9845A8BF9846B8F1000F08DC1B
:402E00000FE00A9B099A31462846B8470130EBD14BE743464A4631462846B84701303FF444AF4FF0000928EAE87804F11A0A09E00123524631462846B84701303FF435AF60
:402E400009F101090D9A0E9B9B1AC8EB03039945EEDB4BE7FFFFEF7F54530000585300005C53000060530000645300000E9A012A01DCDB0738D50123424631462846B847B1
:402E800001303FF412AF0A9B099A31462846B84701303FF40AAFD4E912010022002302F057F920B14FF0000804F11A090EE00E9B08F10102013B19E001234A4631462846BC
:402EC000B84701303FF4F1AE08F101080E9B013B9845F1DB534604F1500231462846B84701307FF403AFE0E64246012331462846B8470130EED1D8E601234A463146284689
:402F0000B84701303FF4D1AE08F10108E3680F9A9B1A9845F0DBE0680F9B9842B8BF18465DE062680EA8531C0DF1340E4BF480637FF474AE062201E012B90122626075E684
:402F4000002106910DF133018DE80C00236005904246CDF81090CDF80CE0029153462846FFF76BFD80460D9BD81C02DB626893421DDDA9F102095FFA89F970E601332361D2
:402F800084E6B9F1660F14D10029636807DD216113B92268D2071DD501330B4419E013B92268D00701D5023313E0012311E04FF067090D9B0E9A934205DB22682361D107D2
:402FC00008D5013305E0002BD4BFC3F102030123134423610D9B4FF0000AA36556E611B0BDE8F08F2DE9F04791461F460A698B6806469342B8BF1346C9F8003091F843208E
:403000000C46DDF8208012B10133C9F800302368990642BFD9F800300233C9F80030256815F0060510D104F1190A07E00123524639463046C04701301AD00135E368D9F8ED
:4030400000209B1A9D42F1DB94F843302268003318BF012392060FD5E118302081F843005A1C94F845102244023382F8431003E04FF0FF30BDE8F08704F14302394630463D
:40308000C0470130F4D02268D9F80050E36802F00602042A08BF5D1B2269A3680CBF25EAE57500259342C4BF9B1AED184FF000091A344D4509D00123224639463046C0472D
:4030C0000130D5D009F10109F3E70020BDE8F0872DE9F04317460A7E85B06E2A984606460C460C9B01F1430E00F0AE8011D8632A22D009D8002A00F0BB80582A40F0CA80C7
:4031000081F84520834955E0642A1ED0692A1CD0C0E0732A00F0B08009D86F2A2ED0702A40F0B8800A6842F020020A603EE0752A24D0782A3AD0ADE01A6801F14205111DDB
:403140001960136884F84230A8E021681A6811F0800F02D0111D196008E011F0400F02F10401196002D0B2F9003000E01368002B3CDA2D225B4284F8432037E021681A68F2
:4031800011F0800F02D0111D196007E011F0400F02F10401196001D0138800E01368227E5C496F2A14BF0A2208221BE078225A4984F845202268186812F0800F00F10405E2
:4031C0001D6003D1550601D5038800E00368D00744BF42F0200222601BB9226822F0200222601022002084F8430001E049490A226568002DA56008DB206820F00400206005
:403200002BB9002D7DD175460CE0002B79D07546B3FBF2F002FB1033CB5C05F8013D03460028F5D1082A0BD12368DA0708D5236962689A42DEBF302305F8013C05F1FF3513
:40324000C5EB0E0323612EE008681A6810F0800F496903D0101D1860136808E010F0400F02F104001860136801D0198000E0196000232361754616E01A68111D19601568F3
:4032800000216268284600F0B3FF08B1401B6060636804E004F1420584F8422001232361002384F84330CDF800803B4603AA21463046FFF797FE013002D14FF0FF3026E069
:4032C00023692A4639463046C0470130F5D023689B0710D5002504F1190907E001234A4639463046C0470130E7D00135E368039A9B1A9D42F2DBE068039B9842B8BF1846FF
:4033000005E00B7804F1420584F842308AE705B0BDE8F08366530000775300000EB400B54FF402719CB0ADF814106FF00041049107914FF6FF711DAB02900690084853F8EB
:40334000042BADF81610006802A9019301F046FB029B00221A701CB05DF804EB03B070474C81FF1F10F8012B11F8013B012A28BF9A42F7D0D01A7047034613F8012B002A53
:40338000FBD1181A0138704730B582B1451E013915F8013F11F8014FA34206D1EC431444E04201D0002BF3D11C46181B30BD104630BD0000174B2DE9F0411D680646AC6D47
:4033C0000F46FCB9502000F00BFFA8658460AB6D046044601C61DC60AB6D9C615C61AB6DDC629C62AB6D5C631C63AB6DDC639C63AB6D5C641C64AB6DDC649C64AB6D1C7762
:40340000AB6D5C62AA6D39463046BDE8F041012300F002B84C81FF1FF0B548B9106838B9F0BD17F8016B5EB1B542FAD12BB1204604460F4614F8015BF3E714600370F0BD5C
:403440004DB915602846F0BD17F8016BB54207D0002EF9D11C4623460F4613F8015BF3E715B10021217000E02B461360F0BD00002DE9F0470F4680463F48D0F800903D4661
:4034800015F8014B09EB0400407800F0080000F0FF0608B12F46F2E72D2C03D1BD1C7C78012603E02B2C04BF7C78BD1C13B1102B0AD15BE0302C57D1287800F0DF0058289C
:4034C0004DD16C7810230235002E14BF4FF0004C6FF0004CBCFBF3FA0027384603FB1ACC09EB040E9EF801E01EF0040F01D0303C0BE01EF0030E1BD0BEF1010F0CBF4FF063
:40350000370E4FF0570ECEEB0404A34210DDB7F1FF3F0AD0504506D801D1644503DC03FB0040012701E04FF0FF3715F8014BD7E77B1C0CD1002E4FF0220314BF4FF0004057
:403540006FF00040C8F800302AB9BDE8F08706B1404272B107B1691E1160BDE8F0873024002BB1D10823AFE70A23ADE7302CA3D0AAE7BDE8F08700BF5081FF1F13460A463F
:40358000014602480068FFF773BF00BF4C81FF1F2DE9F74F03690C6980469C427FDC013C01F114074FEA840E00F1140606EB0E0357F82450019356F824300135B3FBF5F51B
:4035C00007EB0E09C5B34FF0000A3846B446D34650F8043B9AB205FB02A21B0C4FEA124A05FB03A392B2C2EB0B0BBCF800204FEA134A5A441FFA83FBDCF800308145CBEB71
:40360000134303EB224392B242EA03424FEA234B4CF8042BDCD256F80E306BB9019B043B9E421A4602D3C8F8104005E01268043B002AF8D1013CF3E7404600F0F4FF00287B
:403640002BDB304601354FF0000E57F8042B036891B2C1EB0E0E120C99B27144C2EB134303EB214389B24FEA234EB94541EA034340F8043BE9D256F8242006EB840362B939
:40368000043B9E421A4602D3C8F8104005E01268043B002AF8D1013CF3E7284600E0002003B0BDE8F08F00002DE9F04F456A95B08246219CCDE9022345B9102000F090FD65
:4036C000CAF82400456085600560C560DAF82430196859B15A68012393404A608B60504600F0C9FDDAF8243000221A60039BA04A002BBDBF01232360039B0023BCBF23F09E
:4037000000430393DDF80C80A8BF236028F000431B0D1B0593421DD142F20F73209A1360029B43B9934A944BC8F31300002814BF1846104600E09048229B002B00F04685EF
:40374000C37813B100F1080300E0C31C229A136000F03CBDDDE90245002200232046294601F0F6FC074658B1209A01231360229B002B00F01E8581481860013800F026BDFE
:4037800012AB019313AB009322462B46504600F0C5FFC8F30A56049056B1C5F3130343F07F51204641F44011A6F2FF3611971DE0139B129E1E4406F23243202B0ADD029A64
:4037C00006F21240C3F1400322FA00F008FA03F3184304E0C3F12000029B03FA00F0FEF779FD0123A1F1F871013E11930022644BFEF732FC58A3D3E9002301F041FA58A385
:40380000D3E90023FEF72AFC044630460D46FEF771FD55A3D3E9002301F032FA02460B4620462946FEF71AFC04460D4601F0D8FC0022834600232046294601F093FC58B1DD
:403840005846FEF757FD02460B462046294601F07FFC08B90BF1FF3BBBF1160F0DD8DDE90223484901EBCB01D1E9000101F098FC30B10BF1FF3B002300E00123109300E0A5
:403880001090129B9E1B731E079343BFC3F10008002307934FF00008BBF1000F06DB079BCDF82CB05B440793002705E00023CBEB0808CBF100070B931E9B092B28D8052B8A
:4038C000C4BF043B1E931E9BC8BF0025A3F10203D8BF0125032B20D8DFE803F0060E0204012302E0012308E000230A931F9B002B1DDD9946059321E000230A931F9B0BEB07
:40390000030909F10103012B0593B8BF012315E0012500231E930A9501E001230A934FF0FF390022CDF8149012231F9206E04FF001094B46CDF81490CDF87C90DAF82440D6
:4039400000226260042101F114029A421CD86268490001326260F6E761436F63A787D23FB3C8608B288AC63FFB799F501344D33F0000F07F895400009254000065530000F9
:403980000000F83FA05400006168504600F03EFCDAF8243020601B680693059B0E2B00F25B81002D00F05881DDE90234BBF1000FCDE90E3430DD9F4A0BF00F034FEA2B15C9
:4039C00002EBC303E80618CBCDE908340CD5DDE90E01994B05F00F05D3E9082301F07AFA0324CDE9020100E00224934E6DB1E90708D5DDE90801D6E9002301F041F9CDE91E
:403A0000080101346D100836F0E7DDE90823DDE9020101F05FFA20E0CBF1000505B3DDE90E01844B05F00F0203EBC203D3E9002301F026F9CDE902017F4E2D1100230224E0
:403A400055B1EA0705D5D6E9002301F019F9013401236D100836F3E71BB1CDE9020100E00224109BE3B1DDE902560022734B2846314601F077FB98B1059B8BB1B9F1000FB4
:403A800040F3E6800BF1FF330893314600226C4B284601F0F5F80134CDE902014E4602E0059ECDF820B02046FEF724FCDDE9022301F0E6F8634B0022FEF7D0FAA1F1507353
:403AC00004460C931D46D6B9DDE9020100225E4BFEF7C2FA22460C9BCDE9020101F060FB002840F03F820C99224601F10043DDE9020101F037FB002840F02B82A8E00A9A1A
:403B00004C4B711E002A49D003EBC103D3E9002300204E4901F0DEF922462B46FEF79CFACDE90C01069CDDE9020101F059FB0546FEF7E0FB02460B46DDE90201FEF78CFA3D
:403B4000DDE90C23303504F8015BCDE9020101F009FB002840F01D83DDE9022300203749FEF77AFADDE90C2301F0FCFA002840F0D180069BE31AB3426ADADDE90C010022A8
:403B80002F4B01F07DF80022CDE90C01DDE902012B4B01F075F8CDE90201C4E703EBC1012246D1E900012B4601F06AF8069BCDE90C011D469C19DDE9020101F011FB06461A
:403BC000FEF798FB02460B46DDE90201FEF744FA303605F8016BAC42CDE902014FF0000222D11A4BDDE90C01FEF738FA02460B46DDE9020101F0D4FA002840F08B80DDE955
:403C00000C2300201149FEF727FA02460B46DDE9020101F0A7FAD8B114F8013C621E302B40F0B7821446F7E7054B01F029F8CDE90201C0E7A0540000785500000000F03FD1
:403C40000000244000001C40000014400000E03FDDE90E34CDE90234139B002B7CDBBBF10E0F79DCAB4B03EBCB03D3E900671F9B002B14DA059B002B11DC40F06C81002230
:403C8000A54B3046394600F0FBFFDDE9022301F07DFA059D2E46002840F05F8165E1069CDDE9028932463B464046494601F012F901F096FA0546FEF71DFB32463B4600F08F
:403CC000DFFF0B46024649464046FEF7C5F905F1300E069B04F801EBC3EB040E059B73452DD102460B46FEF7B9F98046894602460B463046394601F035FA78B942464B46E5
:403D00003046394601F024FA002800F04482EB0704D440E2DDF820B000E01C4614F8012C631E392A07D1069A9A42F6D1069930220BF1010B0A701A7801321A702BE20022A5
:403D4000764B00F09DFF002200238046894601F0FFF90028A6D01EE20A9A002A2BD01E9A012A0ADC119A12B103F2334302E0129BC3F136033D46444613E0059B5D1EAF42A2
:403D8000BFBF0B9BEA1B9B180B93059BB6BF2F467D1B0025002BA7BF4446059BC3EB08040023079A01211A4450469844079200F001FB064602E03D4644460A9E5CB1079B00
:403DC000002B08DDA342A8BF2346079AC3EB0808E41AD31A0793002F1DDD0A9BABB18DB131462A46504600F07FFB049A01460646504600F0E8FA04990890504600F03BFA42
:403E0000089B04937A1B06D000E03A460499504600F06AFB04900121504600F0CBFA0B9B05465BB31A460146504600F05DFB1E9B0546012B18DC029B83B9039BC3F3130309
:403E400073B9039B23F000473F0D3F054FB1079B08F1010801330793012702E0002700E0029F0B9B73B100E000272B6905EB8303186900F052FAC0F1200004E01E9B012B38
:403E8000D9DD0B9F0120079B184410F01F0008D0C0F12003042B02DDC0F11C0002E006D018461C30079B8044034404440793B8F1000F05DD42460499504600F063FB0490B5
:403EC000079B002B05DD29461A46504600F05AFB0546109B23B32946049800F0A4FB00281EDA00230A220499504600F0DBF90A9B0BF1FF3B0490002B00F05F813146002399
:403F00000A22504600F0CEF9B9F1000F06463FDC3BE000BFA05400000000144000002440059B002B2BDC1E9B022B28DDDDF81490B9F1000F11D129464B460522504600F0E4
:403F4000B1F901460546049800F06DFB00280CDC03E0354600E000252E461F9B069C6FEA030B09E03546DDF820B0069B069A5C1C312313700BF1010B05960026F7E00A9B89
:403F8000DDF8149023B9069CB2E01E9B022BCFDC002C05DD31462246504600F0F3FA06469FB17168504600F031F90446326906F10C01023292000C30FEF72CFD01222146CF
:403FC000504600F0DFFA059000E00596029B069F03F00103079329460498FFF7D9FA3146044600F13008049800F01DFB059A02902946504600F033FBC36802463BB901461B
:404000000A90049800F00FFB0A9A034600E00123114650460A9300F02EF90A9B53B91E9A42B9079A32B9B8F1390F2AD0029B002B1CDC1DE0029A002A04DB1BD11E9ACAB95A
:40404000079ABAB9002B13DD01220499504600F099FA2946049000F0E6FA002803DC07D118F0010F04D0B8F1390F0AD004F131087C1C0CE0002B07F101040BDDB8F1390F1C
:4040800003D139233B70013756E008F1010887F800806CE0069B2746E31A4B4504F8018C3BD000230A220499504600F0FBF8059B04909E424FF00A024FF000033146504628
:4040C00004D100F0EFF80646059084E700F0EAF8002306460A220599504600F0E3F8059079E700230A220499504600F0DBF8049029460498FFF74CFA069B00F1300804F881
:40410000018BE31A4B45ECDB069B0596B9F1010FACBF4B4401331F46002601220499504600F030FA2946049000F07DFA002803DC15D118F0010F12D03C4614F8013C621EE4
:40414000392B09D1069B934204D10BF1010B3123069A02E01446F0E70133137007E03C4614F8013C621E302B01D11446F8E72946504600F080F8059B6BB12EB19E4203D09D
:404180003146504600F077F80599504600F073F801E0DDF820B00499504600F06CF80023209A23700BF101031360229B1BB11C6001E008480AE0069808E0B9F1000F3FF77F
:4041C000E2AE1E9B022B7FF7DEAEB1E615B0BDE8F08F00BF64530000004870475481FF1F024B0146186800F041BB00BF4C81FF1F10B5C9B202449042034605D01C7801307A
:404200008C42F8D1184610BD002010BD70B5456A04460E463DB91020FFF7E2FF6062456085600560C560656AEB6843B1636ADB6853F8260078B1026843F8262017E02122A5
:404240000421204600F0B8FA636AE860DB68002BECD1002070BD012101FA06F56A1D9200204600F0A9FA0028F3D04660856000230361C36070BD70B5446A06460D463CB9A6
:404280001020FFF7ADFF7062446084600460C4603DB1736A6A68DB6853F82210296043F8225070BD2DE9F04106460C460D691F4601F1140E0023DEF80000013381B202FB59
:4042C0000171000C0F0C02FB007089B201EB00419D424FEA10474EF8041BECDCD7B1A3689D4212DB616830460131FFF78FFF8046226904F10C01023292000C30FEF78AFB91
:4043000021463046FFF7B7FF444604EB850301355F6125612046BDE8F081030C1B0413B90004102300E0002310F07F4F04BF0002083310F0704F04BF0001043310F0404FB0
:4043400004BF80000233002803DB420003D5581C70471846704720207047036813F007020BD0D90722D49A074BBF5B089B08036003604CBF01200220704799B209B91B0C96
:40438000102213F0FF0F04BF1B0A0832190704BF1B090432990704BF9B080232D90702D45B0805D00132036010467047002070472020704710B50C460121FFF727FF01224A
:4043C0004461026110BD2DE9F74F14460A69236988469A42BEBF0B46A0461C46D8F81070D4F81090D8F80830D8F8041007EB09069E42C8BF0131FFF709FF00F114052B46B8
:4044000005EB860C0022634502D243F8042BFAE704F1140208F1140102EB890301EB87070093009B0192934257D9B2F800B0BBF1000F23D08946AE464FF0000859F8044B8D
:40444000BEF800A0A3B20BFB03A34FEA144ADEF8004043444FEA14480BFB0A84F24604EB13449BB243EA04434F454FEA14484AF8043B01D9D646E1E7CEF80480019B0432C5
:40448000B3F802A0BAF1000F21D02C4689462B684FF00008B9F800E0B4F802B09BB20AFB0EBEA346F04443EA08434BF8043B59F8043BB4F804E01B0C0AFB03E34F4503EB11
:4044C00018434FEA134801D95C46E3E763600435A7E75CF8043D13B9013E002EF9DC066103B0BDE8F08F00002DE9F843154612F0030206460F4607D0214C013A002354F8DA
:404500002220FFF7CFFE0746AD1036D0746A3CB91020FFF765FE7062446084600460C460D6F82480D8F808404CB940F271213046FFF740FF04460023C8F8080003604FF053
:404540000008EB070AD5394622463046FFF73BFF814639463046FFF78EFE4F466D100CD0206808B10446ECE7224621463046FFF72AFF2060C0F80080F4E73846BDE8F883B6
:40458000685500002DE9F0470C460746914626694FEA621A56444968A368751CAB4202DA01315B00FAE73846FFF730FE002380461A4600F11401534503DA41F82320013303
:4045C000F9E72AEAEA73206901EB830319F01F0904F1140101EB800E14D0C9F1200C002208689A4600FA09F0024343F8042B51F8042B8E4522FA0CF2F2D8CAF8042042B1D4
:40460000B51C06E0043B51F8042B8E4543F8042FF9D8013D3846C8F810502146FFF72BFE4046BDE8F08703690A6910B59B1A11D192001430143183180A4453F8044D52F8D1
:40464000041D8C4202D007D3012010BD9842F4D3002010BD184610BD4FF0FF3010BD2DE9F8430C460746114620461546FFF7DBFF061E08D131463846FFF7C8FD01230361B0
:404680004661BDE8F883BCBF23462C4638466168BABF1D4601260026FFF7B8FD2B69C660266905F1140904F1140101EB860709EB830800F114054FF0000C51F8042B59F846
:4046C000044B93B29C44A3B2240CC3EB0C03C4EB124202EB23429BB24FEA224CC84543EA02428E4645F8042BE7D8BE450ED25EF8041B8AB26244131403EB114392B242EA2B
:4047000003424FEA234C45F8042BEEE755F8043D0BB9013EFAE70661BDE8F8832DE9F3411C4601219046089E099DFFF76FFDC4F31302C4F30A5407460CB142F480120192BA
:40474000B8F1000F19D002A840F8088DFFF705FE009B48B1019AC0F1200102FA01F10B43C2407B61019200E07B61019B002B14BF02210121BB61396107E001A8FFF7EDFDB9
:40478000019B01217B613961203034B1A4F2334404443460C0F1350009E0A0F2324007EB810330601869FFF7B8FDC0EB41102860384602B0BDE8F08138B502FB01F4214692
:4047C00000F054F8054618B122460021FEF72DF9284638BD38B50546002944D051F8043C0C1F002BB8BFE41800F017FA1E4A1368114613B96360146030E0A3420DD92268F8
:40480000A018834201BF18685B681218226063600C6023E0A24203D813465A68002AF9D118681918A1420BD12168014458188242196013D110685268014419605A600DE0E6
:4048400002D90C232B6009E021686018824201BF106852680918216062605C602846BDE8384000F0DBB938BD2805002070B5CD1C25F0030508350C2D38BF0C25002D064650
:4048800001DBA94202D90C23336046E000F0C5F9234B1C681A462146A1B10B685B1B0ED40B2B03D90B60CC18CD501EE08C420BBF63684B681360636018BF0C4615E00C46B2
:4048C0004968E9E7174C23681BB9304600F07AF920602946304600F075F9431C18D0C41C24F00304A0420DD12560304600F096F904F10B00231D20F00700C31A0ED05A42AF
:40490000E25070BD211A304600F05CF90130EBD10C233360304600F081F9002070BD00BF28050020240500202DE9F0478E6882469E420C46914698463ED88A8912F4906FD1
:404940003AD02568096902236F1A656905EB450595FBF3F57B1C43449D4238BF1D4653050FD52946FFF782FF064698B13A462169FEF750F8A38923F4906343F08003A3819B
:4049800013E02A4600F04BF9064670B921695046FFF720FF0C23CAF80030A3894FF0FF3043F04003A381BDE8F08726613E44266046466561ED1BA560464528BF46464946CA
:4049C0003246206800F00EF9A36800209B1BA36023681E442660BDE8F08700002DE9F04F9DB003938B8980461C060D4616460DD50B695BB94021FFF739FF2860286118B98F
:404A00000C23C8F80030CDE040236B610023099320238DF82930DFF89CB130238DF82A3037463C4614F8013B1BB9B7EB060910D003E0252BF9D02746F3E74B4632462946DE
:404A40004046FFF771FF013000F0A780099B4B4409933B78002B00F0A08000234FF0FF3204930793059206938DF853301A930126052221784E48FFF7BBFB671C049B38B168
:404A80004B4A3C46801A06FA00F018430490EFE7D90644BF20228DF853201A0744BF2B228DF8532022782A2A03D0079A00210A200BE0039A111D12680391002A10DA5242F2
:404AC00043F00200079204900BE027463B780134303B092B03D800FB02320121F5E701B107923B782E2B1ED17B782A2B0AD1039B02371A1D1B680392002BB8BF4FF0FF33CB
:404B0000059310E0002319460593781C0A2407463A780130303A092A03D804FB01210123F5E703B10591032239782248FFF760FB40B14023CBEB000003FA00F0049B01379F
:404B400018430490397806221B487E1C8DF82810FFF74EFB88B1194B33B9039B073323F007030833039314E003AB00932A46144B04A94046FDF7F2FF07E003AB00932A4671
:404B80000F4B04A94046FEF7A3FAB0F1FF3F824603D0099B5344099342E7AB895B0601D4099801E04FF0FF301DB0BDE8F08F00BFA0550000A6550000AA5500005D2B0000DB
:404BC0002949000038B5064C0023054608462360FCF72AFC431C02D1236803B12B6038BD54050020884210B501EB020301D8421E0BE09842FBD28118D21AD34204D013F87E
:404C0000014D01F8014DF8E710BD994204D011F8014B02F8014FF8E710BD70477047F8B5074615460E4621B91146BDE8F840FFF71DBE1AB9FFF7CEFD2846F8BD00F015F88F
:404C400085420ED929463846FFF710FE044650B131462A46FDF7DEFE31463846FFF7BAFD01E03046F8BD2046F8BD51F8040C0028BEBF091851F8043CC01804387047000057
:404C800070B54FF0FF0C4CF4E06C1CEA11541DBF1CEA135594EA0C0F95EA0C0F00F0DEF82C4481EA030621EA4C5123EA4C5350EA013518BF52EA033541F4801143F48013C8
:404CC00038D0A0FB02CE4FF00005E1FB02E506F00042E0FB03E54FF00006E1FB03569CF0000F18BF4EF0010EA4F1FF04B6F5007F64F5407404D25FEA4E0E6D4146EB0606D1
:404D000042EAC62141EA55514FEAC52040EA5E504FEACE2EB4F1FD0C88BFBCF5E06F1ED8BEF1004F08BF5FEA500E50F1000041EB045170BD06F0004646EA010140EA020084
:404D400081EA0301B4EB5C04C2BFD4EB0C0541EA045170BD41F480114FF0000E013C00F3AB8014F1360FDEBF002001F0004170BDC4F10004203C35DA0C341BDC04F114048B
:404D8000C4F1200500FA05F320FA04F001FA05F240EA020001F0004221F0004110EBD37021FA04F642EB06015EEA430E08BF20EAD37070BDC4F10C04C4F1200500FA04F385
:404DC00020FA05F001FA04F240EA020001F0004110EBD37041F100015EEA430E08BF20EAD37070BDC4F1200500FA05F24EEA020E20FA04F301FA05F243EA020321FA04F0B3
:404E000001F0004121FA04F220EA020000EBD3705EEA430E08BF20EAD37070BD94F0000F0FD101F00046400041EB010111F4801F08BF013CF7D041EA060195F0000F18BFF7
:404E4000704703F00046520043EB030313F4801F08BF013DF7D043EA0603704794EA0C0F0CEA135518BF95EA0C0F0CD050EA410618BF52EA4306D1D181EA030101F00041F9
:404E80004FF0000070BD50EA410606BF1046194652EA430619D094EA0C0F02D150EA013613D195EA0C0F05D152EA03361CBF104619460AD181EA030101F0004141F0FE41FB
:404EC00041F470014FF0000070BD41F0FE4141F4780170BD70B54FF0FF0C4CF4E06C1CEA11541DBF1CEA135594EA0C0F95EA0C0F00F0A7F8A4EB050481EA030E52EA03355B
:404F00004FEA013100F088804FEA03334FF0805545EA131343EA12634FEA022245EA111545EA10654FEA00260EF000419D4208BF964244F1FD0404F5407402D25B084FEACF
:404F40003202B61A65EB03055B084FEA32024FF480104FF4002CB6EB020E75EB030E22BFB61A754640EA0C005B084FEA3202B6EB020E75EB030E22BFB61A754640EA5C001B
:404F80005B084FEA3202B6EB020E75EB030E22BFB61A754640EA9C005B084FEA3202B6EB020E75EB030E22BFB61A754640EADC0055EA060E18D04FEA051545EA16754FEAE8
:404FC00006164FEAC30343EA52734FEAC2025FEA1C1CC0D111F4801F0BD141EA00014FF000004FF0004CB6E711F4801F04BF01430020B4F1FD0C88BFBCF5E06F3FF6AFAE30
:40500000B5EB030C04BFB6EB020C5FEA500C50F1000041EB045170BD0EF0004E4EEA113114EB5C04C2BFD4EB0C0541EA045170BD41F480114FF0000E013C90E645EA060E8F
:405040008DE60CEA135594EA0C0F08BF95EA0C0F3FF43BAF94EA0C0F0AD150EA01347FF434AF95EA0C0F7FF425AF104619462CE795EA0C0F06D152EA03353FF4FDAE10464D
:40508000194622E750EA410618BF52EA43067FF4C5AE50EA41047FF40DAF52EA43057FF4EBAE12E74FF0FF3C06E000BF4FF0010C02E000BF4FF0010C4DF804CD4FEA410C9A
:4050C0007FEA6C5C4FEA430C18BF7FEA6C5C1BD001B050EA410C0CBF52EA430C91EA030F02BF90EA020F0020704710F1000F91EA030F58BF994208BF90422CBFD8176FEA6B
:40510000E37040F0010070474FEA410C7FEA6C5C02D150EA013C07D14FEA430C7FEA6C5CD6D152EA033CD3D05DF8040B704700BF8446104662468C461946634600E000BFC2
:4051400001B5FFF7B7FF002848BF10F1000F01BD4DF808EDFFF7F4FF0CBF012000205DF808FB00BF4DF808EDFFF7EAFF34BF012000205DF808FB00BF4DF808EDFFF7E0FF17
:4051800094BF012000205DF808FB00BF4DF808EDFFF7CEFF94BF012000205DF808FB00BF4DF808EDFFF7C4FF34BF012000205DF808FB00BF4FEA410C7FEA6C5C02D150EA9A
:4051C000013C0AD14FEA430C7FEA6C5C02D152EA033C02D14FF0000070474FF0010070474FEA410212F5001215D211D56FF47873B3EB625212D94FEAC12343F0004343EA23
:40520000505311F0004F23FA02F018BF404270474FF00000704750EA013005D111F0004008BF6FF0004070474FF00000704700BF00000000000000004442475F523A206DCD
:40524000763D256C642C20527261773D256C642C205263616C3D256C640D0A004442475F433A2074696D656F7574206F72206261642064740D0A00004442475F433A206401
:40528000743D256C752075732C20433D252E33662075460D0A0000002C000000465245513A000000414D503A00000000574156453A00000053494E4500000000545249004E
:4052C00053515200454E3A004D4541533A0000005200000043000000525F474E443A256C640D0A00435F75463A252E33660D0A004150500052454144590D0A0049444C4501
:405300000000000024430040244300401D510040285B004000002002305100404000F05100401000000001400010001401400006801A0140800100400140000A004C0140DA
:405340000002005001402000001A0140CC03004880004300494E4600696E66004E414E006E616E00300030313233343536373839414243444546003031323334353637386B
:4053800039616263646566000020202020202020202028282828282020202020202020202020202020202020208810101010101010101010101010101004040404040404A3
:4053C000040404101010101010104141414141410101010101010101010101010101010101010101101010101010424242424242020202020202020202020202020202028B
:405400000202020210101010200000000000000000000000000000000000000000000000000000000000000000000000000000000000000000000000000000000000000004
:40544000000000000000000000000000000000000000000000000000000000000000000000000000000000000000000000000000000000000000000000000000000000002C
:40548000000000000000000000496E66696E697479004E614E00504F534958002E000000000000000000F03F000000000000244000000000000059400000000000408F40A9
:4054C000000000000088C34000000000006AF8400000000080842E4100000000D01263410000000084D797410000000065CDCD41000000205FA00242000000E87648374291
:40550000000000A2941A6D42000040E59C30A2420000901EC4BCD64200003426F56B0C430080E03779C3414300A0D8855734764300C84E676DC1AB43003D9160E458E14389
:40554000408CB5781DAF154450EFE2D6E41A4B4492D54D06CFF08044F64AE1C7022DB544B49DD9794378EA4405000000190000007D000000000000000080E03779C34143BE
:40558000176E05B5B5B89346F5F93FE9034F384D321D30F94877825A3CBF737FDD4F1575232D302B2000686C4C0065666745464700000000F8B500BFF8BC08BC9E46704755
:4055C0004D000000A5140000F8B500BFF8BC08BC9E46704729000000E8550000C880FF1FC8000000C88300000000000064000000AAAAAAAA580500200000E02EC05D000093
:405600001800000000366E01FF0000000000000000000000000000000000000000000000000000000000000000000000525300000000000000000000000000000000000009
:405640000000000000000000000000000000000000000000000000000000000000000000000000000000000000000000EC80FF1F885300009C540000A5550000A5550000E1
:40568000A5550000A5550000A5550000A5550000A5550000A5550000A5550000FFFFFFFFFFFFFFFFFFFFFFFFFFFF0000000000000000000000000000000000000000000022
:4056C00000000000000000000000000000000000000000000000000000000000000000000000000000000000000000000000000000000000000000000000000000000000AA
:405700000000000000000000000000000000000000000000000000000000000000000000000000000000000000000000000000000000000000000000000000000000000069
:405740000000000000000000000000000000000000000000000000000000000000000000000000000000000000000000000000000000000000000000000000000000000029
:4057800000000000000000000000000000000000000000000000000000000000000000000000000000000000000000000000000000000000000000000000000000000000E9
:020000040003F7
:0200000480007A
:4000000002520040015B00400264004002650040020501400107014008090140480A01402B0B0140011501407418014041190140041A0140431B014006400140044101408C
:40004000084201400343014005460140014701400148014002490140024C01400A4D01400450014002510140618064402F218A388B0D8A728B0FE248E640EE0496039702BA
:400080009B489E05A508A620A720EE04010104010A020E04100116011E0126042A02320134023501360438083A023E503F10405149FF4AFF4BFF4F01501854185604580454
:4000C00059045A045B045C015D105F016040624064406540668068806A806C806E809E01AE01B001BE01C041C5ECC602C807C9FFCAFFCBFFCD83CE03CF01D018D280D4013D
:40010000D604D804DA04DB04DF01E040E240E440E540E680E880EA80EC80EE800201032809080A810D801224178019501A801B081E802308324033403B024180458046408E
:4001400048014D044F0155805A025D045E805F016151678074017640778087408D01C007C28DC486CE01D098D208D6D1D88DE240E640EE08001409800A030CDC0E220F55D4
:40018000112A1344140916D017081C101D731E401F0C201022AC25732704280C29032A712B442E203140321F338034E03530370F39203A203B803F154003474049FF4A0774
:4001C0004BFF4C404D204EF04F055008580459045A045C115D015F01604061A86240632081018208830E84C089278C118D208E06900C9213960C984099279A809C119E0E65
:40020000A4C0A502A711A880A904AA40AB11AC20AE03B00FB107B230B320B4C0B718B808BA02BF40C023C105C206C401C7CEC830C9FFCAFFCBFFCC62CDA0CEF0CF41D00CB6
:40024000D804D904DA04DC11DD01DF01E640E702E910EA30EB10ED10EE10EF120002021003010490064008A00A900E100F0210141340154016081701188019191A901C101E
:400280001F102001210722042580268027A5282429102E082F1430103310352936A039A23A103C103D403FC04005410443204704496052055401574159405B408C408D1025
:4002C000960397029B489E05A508A620A720C0DDC2AFC4D7CA66CCD4CE3DD04ED20CD401DB04DD10DF01004403400804090A0A0910A011401310180419051A011B40210855
:400300002221280429442B4030A03102320438443A023B1041804B635240530459015D105F8969A06B1070A073107D107F048C208D408E02904092089360940495A0960340
:40034000970A99409BC89C209E409F10A182A508A620B080B310B720C00DC20FC40FCA0FCC0FCE0FD008D20CD6F1EE083101332036843B80CCF0CE1097809D01A684A72048
:4003800087408D018E0497809D01A684A720E210A680AB20EE201A201B048E10C608E202AB04A680AE80EE101F80C601128072108E809210AF80B610C408DC01E202EC0875
:4003C00000030C0310021C0200FF01033F44000033E70C18001800000280000003C000001C0023E3000823001F102000081C00E1040000040C3C00C201FF400010C0401F78
:400400000F382C000000A008000001001506000000E00B0C16FFFFFF0000F0440C000000000002130404040411110001000000000000C000000040020000000000000000F1
:40044000000000000000000000000000000000000000D400800040808000800000000000000B0B0000002000000000000000010015001801170018010000000000000000D3
:40048000000000000000000000000000000000000000000000000000000000000000000000000000000000000000000000000000000000000000000000000000000000003C
:4004C00000000000000000000000000000000000000000000000000000000000000000000000000000000000000000000000000000000000000000000000000000000000FC
:4005000000000000000000000000000000000000000000000000000000000000000000000000000000000000000000000000000000000000000000000000000000000000BB
:40054000000000000000000000000000000000000000000000000000000000000000000000000000000000000000000000000000000000000000000000000000000000007B
:0200000490006A
:0400000000004005B7
:0200000490105A
:04000000BC90ACAF55
:0200000490303A
:02000000B4DC6E
:0200000490402A
:4000000000000000000000000000000000000000000000000000000000000000000000000000000000000000000000000000000000000000000000000000000000000000C0
:400040000000000000000000000000000000000000000000000000000000000000000000000000000000000000000000000000000000000000000000000000000000000080
:400080000000000000000000000000000000000000000000000000000000000000000000000000000000000000000000000000000000000000000000000000000000000040
:4000C0000000000000000000000000000000000000000000000000000000000000000000000000000000000000000000000000000000000000000000000000000000000000
:0200000490501A
:0C00000000012E16106900012E38C545C5
:00000001FF